{
  "_format": "hh-sol-artifact-1",
  "contractName": "Voting",
  "sourceName": "contracts/Voting.sol",
  "abi": [
    {
      "inputs": [
        {
          "internalType": "string[]",
          "name": "_candidateNames",
          "type": "string[]"
        },
        {
          "internalType": "uint256",
          "name": "_durationInMinutes",
          "type": "uint256"
        }
      ],
      "stateMutability": "nonpayable",
      "type": "constructor"
    },
    {
      "anonymous": false,
      "inputs": [
        {
          "indexed": false,
          "internalType": "address",
          "name": "voter",
          "type": "address"
        },
        {
          "indexed": false,
          "internalType": "uint256",
          "name": "candidateIndex",
          "type": "uint256"
        }
      ],
      "name": "VoteCast",
      "type": "event"
    },
    {
      "inputs": [
        {
          "internalType": "string",
          "name": "_name",
          "type": "string"
        }
      ],
      "name": "addCandidate",
      "outputs": [],
      "stateMutability": "nonpayable",
      "type": "function"
    },
    {
      "inputs": [
        {
          "internalType": "uint256",
          "name": "",
          "type": "uint256"
        }
      ],
      "name": "candidates",
      "outputs": [
        {
          "internalType": "string",
          "name": "name",
          "type": "string"
        },
        {
          "internalType": "uint256",
          "name": "voteCount",
          "type": "uint256"
        }
      ],
      "stateMutability": "view",
      "type": "function"
    },
    {
      "inputs": [],
      "name": "getAllVotesOfCandiates",
      "outputs": [
        {
          "components": [
            {
              "internalType": "string",
              "name": "name",
              "type": "string"
            },
            {
              "internalType": "uint256",
              "name": "voteCount",
              "type": "uint256"
            }
          ],
          "internalType": "struct Voting.Candidate[]",
          "name": "",
          "type": "tuple[]"
        }
      ],
      "stateMutability": "view",
      "type": "function"
    },
    {
      "inputs": [],
      "name": "getRemainingTime",
      "outputs": [
        {
          "internalType": "uint256",
          "name": "",
          "type": "uint256"
        }
      ],
      "stateMutability": "view",
      "type": "function"
    },
    {
      "inputs": [],
      "name": "getVotingStatus",
      "outputs": [
        {
          "internalType": "bool",
          "name": "",
          "type": "bool"
        }
      ],
      "stateMutability": "view",
      "type": "function"
    },
    {
      "inputs": [],
      "name": "owner",
      "outputs": [
        {
          "internalType": "address",
          "name": "",
          "type": "address"
        }
      ],
      "stateMutability": "view",
      "type": "function"
    },
    {
      "inputs": [
        {
          "internalType": "uint256",
          "name": "_candidateIndex",
          "type": "uint256"
        }
      ],
      "name": "vote",
      "outputs": [],
      "stateMutability": "nonpayable",
      "type": "function"
    },
    {
      "inputs": [
        {
          "internalType": "address",
          "name": "",
          "type": "address"
        }
      ],
      "name": "voters",
      "outputs": [
        {
          "internalType": "bool",
          "name": "",
          "type": "bool"
        }
      ],
      "stateMutability": "view",
      "type": "function"
    },
    {
      "inputs": [],
      "name": "votingEnd",
      "outputs": [
        {
          "internalType": "uint256",
          "name": "",
          "type": "uint256"
        }
      ],
      "stateMutability": "view",
      "type": "function"
    },
    {
      "inputs": [],
      "name": "votingStart",
      "outputs": [
        {
          "internalType": "uint256",
          "name": "",
          "type": "uint256"
        }
      ],
      "stateMutability": "view",
      "type": "function"
    }
  ],
  "bytecode": "0x60806040523480156200001157600080fd5b5060405162001676380380620016768339818101604052810190620000379190620004da565b60005b8251811015620000e3576000604051806040016040528085848151811062000067576200006662000540565b5b60200260200101518152602001600081525090806001815401808255809150506001900390600052602060002090600202016000909190919091506000820151816000019080519060200190620000c092919062000156565b506020820151816001015550508080620000da906200059e565b9150506200003a565b5033600160006101000a81548173ffffffffffffffffffffffffffffffffffffffff021916908373ffffffffffffffffffffffffffffffffffffffff16021790555042600381905550603c816200013b9190620005ec565b426200014891906200064d565b60048190555050506200070f565b8280546200016490620006d9565b90600052602060002090601f016020900481019282620001885760008555620001d4565b82601f10620001a357805160ff1916838001178555620001d4565b82800160010185558215620001d4579182015b82811115620001d3578251825591602001919060010190620001b6565b5b509050620001e39190620001e7565b5090565b5b8082111562000202576000816000905550600101620001e8565b5090565b6000604051905090565b600080fd5b600080fd5b600080fd5b6000601f19601f8301169050919050565b7f4e487b7100000000000000000000000000000000000000000000000000000000600052604160045260246000fd5b6200026a826200021f565b810181811067ffffffffffffffff821117156200028c576200028b62000230565b5b80604052505050565b6000620002a162000206565b9050620002af82826200025f565b919050565b600067ffffffffffffffff821115620002d257620002d162000230565b5b602082029050602081019050919050565b600080fd5b600080fd5b600067ffffffffffffffff8211156200030b576200030a62000230565b5b62000316826200021f565b9050602081019050919050565b60005b838110156200034357808201518184015260208101905062000326565b8381111562000353576000848401525b50505050565b6000620003706200036a84620002ed565b62000295565b9050828152602081018484840111156200038f576200038e620002e8565b5b6200039c84828562000323565b509392505050565b600082601f830112620003bc57620003bb6200021a565b5b8151620003ce84826020860162000359565b91505092915050565b6000620003ee620003e884620002b4565b62000295565b90508083825260208201905060208402830185811115620004145762000413620002e3565b5b835b818110156200046257805167ffffffffffffffff8111156200043d576200043c6200021a565b5b8086016200044c8982620003a4565b8552602085019450505060208101905062000416565b5050509392505050565b600082601f8301126200048457620004836200021a565b5b815162000496848260208601620003d7565b91505092915050565b6000819050919050565b620004b4816200049f565b8114620004c057600080fd5b50565b600081519050620004d481620004a9565b92915050565b60008060408385031215620004f457620004f362000210565b5b600083015167ffffffffffffffff81111562000515576200051462000215565b5b62000523858286016200046c565b92505060206200053685828601620004c3565b9150509250929050565b7f4e487b7100000000000000000000000000000000000000000000000000000000600052603260045260246000fd5b7f4e487b7100000000000000000000000000000000000000000000000000000000600052601160045260246000fd5b6000620005ab826200049f565b91507fffffffffffffffffffffffffffffffffffffffffffffffffffffffffffffffff821415620005e157620005e06200056f565b5b600182019050919050565b6000620005f9826200049f565b915062000606836200049f565b9250817fffffffffffffffffffffffffffffffffffffffffffffffffffffffffffffffff04831182151516156200064257620006416200056f565b5b828202905092915050565b60006200065a826200049f565b915062000667836200049f565b9250827fffffffffffffffffffffffffffffffffffffffffffffffffffffffffffffffff038211156200069f576200069e6200056f565b5b828201905092915050565b7f4e487b7100000000000000000000000000000000000000000000000000000000600052602260045260246000fd5b60006002820490506001821680620006f257607f821691505b60208210811415620007095762000708620006aa565b5b50919050565b610f57806200071f6000396000f3fe608060405234801561001057600080fd5b506004361061009e5760003560e01c8063581c281c11610066578063581c281c1461014857806385a38635146101665780638da5cb5b14610184578063a3ec138d146101a2578063efb98bcf146101d25761009e565b80630121b93f146100a3578063101158af146100bf5780633477ee2e146100dd578063462e91ec1461010e5780634d6bda5f1461012a575b600080fd5b6100bd60048036038101906100b8919061079e565b6101f0565b005b6100c761035a565b6040516100d491906107da565b60405180910390f35b6100f760048036038101906100f2919061079e565b610360565b60405161010592919061088e565b60405180910390f35b610128600480360381019061012391906109f3565b61041c565b005b6101326104e3565b60405161013f9190610b94565b60405180910390f35b6101506105de565b60405161015d9190610bd1565b60405180910390f35b61016e6105f8565b60405161017b91906107da565b60405180910390f35b61018c6105fe565b6040516101999190610c2d565b60405180910390f35b6101bc60048036038101906101b79190610c74565b610624565b6040516101c99190610bd1565b60405180910390f35b6101da610644565b6040516101e791906107da565b60405180910390f35b600260003373ffffffffffffffffffffffffffffffffffffffff1673ffffffffffffffffffffffffffffffffffffffff16815260200190815260200160002060009054906101000a900460ff161561027d576040517f08c379a000000000000000000000000000000000000000000000000000000000815260040161027490610ced565b60405180910390fd5b60008054905081106102c4576040517f08c379a00000000000000000000000000000000000000000000000000000000081526004016102bb90610d59565b60405180910390fd5b600081815481106102d8576102d7610d79565b5b906000526020600020906002020160010160008154809291906102fa90610dd7565b91905055506001600260003373ffffffffffffffffffffffffffffffffffffffff1673ffffffffffffffffffffffffffffffffffffffff16815260200190815260200160002060006101000a81548160ff02191690831515021790555050565b60035481565b6000818154811061037057600080fd5b906000526020600020906002020160009150905080600001805461039390610e4f565b80601f01602080910402602001604051908101604052809291908181526020018280546103bf90610e4f565b801561040c5780601f106103e15761010080835404028352916020019161040c565b820191906000526020600020905b8154815290600101906020018083116103ef57829003601f168201915b5050505050908060010154905082565b600160009054906101000a900473ffffffffffffffffffffffffffffffffffffffff1673ffffffffffffffffffffffffffffffffffffffff163373ffffffffffffffffffffffffffffffffffffffff161461047657600080fd5b600060405180604001604052808381526020016000815250908060018154018082558091505060019003906000526020600020906002020160009091909190915060008201518160000190805190602001906104d39291906106b1565b5060208201518160010155505050565b60606000805480602002602001604051908101604052809291908181526020016000905b828210156105d5578382906000526020600020906002020160405180604001604052908160008201805461053a90610e4f565b80601f016020809104026020016040519081016040528092919081815260200182805461056690610e4f565b80156105b35780601f10610588576101008083540402835291602001916105b3565b820191906000526020600020905b81548152906001019060200180831161059657829003601f168201915b5050505050815260200160018201548152505081526020019060010190610507565b50505050905090565b600060035442101580156105f3575060045442105b905090565b60045481565b600160009054906101000a900473ffffffffffffffffffffffffffffffffffffffff1681565b60026020528060005260406000206000915054906101000a900460ff1681565b600060035442101561068b576040517f08c379a000000000000000000000000000000000000000000000000000000000815260040161068290610ecd565b60405180910390fd5b600454421061069d57600090506106ae565b426004546106ab9190610eed565b90505b90565b8280546106bd90610e4f565b90600052602060002090601f0160209004810192826106df5760008555610726565b82601f106106f857805160ff1916838001178555610726565b82800160010185558215610726579182015b8281111561072557825182559160200191906001019061070a565b5b5090506107339190610737565b5090565b5b80821115610750576000816000905550600101610738565b5090565b6000604051905090565b600080fd5b600080fd5b6000819050919050565b61077b81610768565b811461078657600080fd5b50565b60008135905061079881610772565b92915050565b6000602082840312156107b4576107b361075e565b5b60006107c284828501610789565b91505092915050565b6107d481610768565b82525050565b60006020820190506107ef60008301846107cb565b92915050565b600081519050919050565b600082825260208201905092915050565b60005b8381101561082f578082015181840152602081019050610814565b8381111561083e576000848401525b50505050565b6000601f19601f8301169050919050565b6000610860826107f5565b61086a8185610800565b935061087a818560208601610811565b61088381610844565b840191505092915050565b600060408201905081810360008301526108a88185610855565b90506108b760208301846107cb565b9392505050565b600080fd5b600080fd5b7f4e487b7100000000000000000000000000000000000000000000000000000000600052604160045260246000fd5b61090082610844565b810181811067ffffffffffffffff8211171561091f5761091e6108c8565b5b80604052505050565b6000610932610754565b905061093e82826108f7565b919050565b600067ffffffffffffffff82111561095e5761095d6108c8565b5b61096782610844565b9050602081019050919050565b82818337600083830152505050565b600061099661099184610943565b610928565b9050828152602081018484840111156109b2576109b16108c3565b5b6109bd848285610974565b509392505050565b600082601f8301126109da576109d96108be565b5b81356109ea848260208601610983565b91505092915050565b600060208284031215610a0957610a0861075e565b5b600082013567ffffffffffffffff811115610a2757610a26610763565b5b610a33848285016109c5565b91505092915050565b600081519050919050565b600082825260208201905092915050565b6000819050602082019050919050565b600082825260208201905092915050565b6000610a84826107f5565b610a8e8185610a68565b9350610a9e818560208601610811565b610aa781610844565b840191505092915050565b610abb81610768565b82525050565b60006040830160008301518482036000860152610ade8282610a79565b9150506020830151610af36020860182610ab2565b508091505092915050565b6000610b0a8383610ac1565b905092915050565b6000602082019050919050565b6000610b2a82610a3c565b610b348185610a47565b935083602082028501610b4685610a58565b8060005b85811015610b825784840389528151610b638582610afe565b9450610b6e83610b12565b925060208a01995050600181019050610b4a565b50829750879550505050505092915050565b60006020820190508181036000830152610bae8184610b1f565b905092915050565b60008115159050919050565b610bcb81610bb6565b82525050565b6000602082019050610be66000830184610bc2565b92915050565b600073ffffffffffffffffffffffffffffffffffffffff82169050919050565b6000610c1782610bec565b9050919050565b610c2781610c0c565b82525050565b6000602082019050610c426000830184610c1e565b92915050565b610c5181610c0c565b8114610c5c57600080fd5b50565b600081359050610c6e81610c48565b92915050565b600060208284031215610c8a57610c8961075e565b5b6000610c9884828501610c5f565b91505092915050565b7f596f75206861766520616c726561647920766f7465642e000000000000000000600082015250565b6000610cd7601783610800565b9150610ce282610ca1565b602082019050919050565b60006020820190508181036000830152610d0681610cca565b9050919050565b7f496e76616c69642063616e64696461746520696e6465782e0000000000000000600082015250565b6000610d43601883610800565b9150610d4e82610d0d565b602082019050919050565b60006020820190508181036000830152610d7281610d36565b9050919050565b7f4e487b7100000000000000000000000000000000000000000000000000000000600052603260045260246000fd5b7f4e487b7100000000000000000000000000000000000000000000000000000000600052601160045260246000fd5b6000610de282610768565b91507fffffffffffffffffffffffffffffffffffffffffffffffffffffffffffffffff821415610e1557610e14610da8565b5b600182019050919050565b7f4e487b7100000000000000000000000000000000000000000000000000000000600052602260045260246000fd5b60006002820490506001821680610e6757607f821691505b60208210811415610e7b57610e7a610e20565b5b50919050565b7f566f74696e6720686173206e6f742073746172746564207965742e0000000000600082015250565b6000610eb7601b83610800565b9150610ec282610e81565b602082019050919050565b60006020820190508181036000830152610ee681610eaa565b9050919050565b6000610ef882610768565b9150610f0383610768565b925082821015610f1657610f15610da8565b5b82820390509291505056fea26469706673582212202e24c6c7b865fd428d0db875fc5080b1004f15ea5c62963637b5eecddecb45b864736f6c634300080b0033",
  "linkReferences": {},
  "deployedLinkReferences": {}
}